:020000040000fa
:080000000002040000000000f2
:020000040000fa
:040008007e04000072
:020000040000fa
:04000c007e0400006e
:020000040000fa
:040010007e0400006a
:020000040000fa
:040014007e04000066
:020000040000fa
:040018007e04000062
:020000040000fa
:04001c007e0400005e
:020000040000fa
:040020007e0400005a
:020000040000fa
:040024007e04000056
:020000040000fa
:040028007e04000052
:020000040000fa
:04002c007e0400004e
:020000040000fa
:040030007e0400004a
:020000040000fa
:040034000a030000bb
:020000040000fa
:040038007e04000042
:020000040000fa
:04003c007e0400003e
:020000040000fa
:040040007e0400003a
:020000040000fa
:040044007e04000036
:020000040000fa
:040048007e04000032
:020000040000fa
:04004c007e0400002e
:020000040000fa
:040050007e0400002a
:020000040000fa
:040054003203000073
:020000040000fa
:040058001a03000087
:020000040000fa
:04005c007e0400001e
:020000040000fa
:040060007e0400001a
:020000040000fa
:040064007e04000016
:020000040000fa
:040068007e04000012
:020000040000fa
:04006c007e0400000e
:020000040000fa
:040070007e0400000a
:020000040000fa
:040074007e04000006
:020000040000fa
:040078007e04000002
:020000040000fa
:04007c007e040000fe
:020000040000fa
:040080007e040000fa
:020000040000fa
:040084007e040000f6
:020000040000fa
:040088007e040000f2
:020000040000fa
:04008c007e040000ee
:020000040000fa
:040090007e040000ea
:020000040000fa
:040094007e040000e6
:020000040000fa
:040098007e040000e2
:020000040000fa
:04009c007e040000de
:020000040000fa
:0400a000e003000079
:020000040000fa
:0400a400c80300008d
:020000040000fa
:0400a8007e040000d2
:020000040000fa
:0400ac007e040000ce
:020000040000fa
:0400b0007e040000ca
:020000040000fa
:0400b4007e040000c6
:020000040000fa
:0400b8007e040000c2
:020000040000fa
:0400bc007e040000be
:020000040000fa
:0400c0007e040000ba
:020000040000fa
:0400c4007e040000b6
:020000040000fa
:0400c8007e040000b2
:020000040000fa
:0400cc007e040000ae
:020000040000fa
:0400d0007e040000aa
:020000040000fa
:0400d4007e040000a6
:020000040000fa
:0400d8007e040000a2
:020000040000fa
:0400dc007e0400009e
:020000040000fa
:0400e0007e0400009a
:020000040000fa
:0400e4007e04000096
:020000040000fa
:0400e8007e04000092
:020000040000fa
:0400ec007e0400008e
:020000040000fa
:0400f0007e0400008a
:020000040000fa
:0400f4007e04000086
:020000040000fa
:0400f8007e04000082
:020000040000fa
:0400fc007e0400007e
:020000040000fa
:040100007e04000079
:020000040000fa
:040104007e04000075
:020000040000fa
:040108007e04000071
:020000040000fa
:04010c007e0400006d
:020000040000fa
:040110007e04000069
:020000040000fa
:040114007e04000065
:020000040000fa
:040118007e04000061
:020000040000fa
:04011c007e0400005d
:020000040000fa
:040120007e04000059
:020000040000fa
:040124007e04000055
:020000040000fa
:040128007e04000051
:020000040000fa
:04012c007e0400004d
:020000040000fa
:040130007e04000049
:020000040000fa
:040134007e04000045
:020000040000fa
:040138007e04000041
:020000040000fa
:04013c007e0400003d
:020000040000fa
:040140007e04000039
:020000040000fa
:040144007e04000035
:020000040000fa
:040148007e04000031
:020000040000fa
:04014c007e0400002d
:020000040000fa
:040150007e04000029
:020000040000fa
:040154007e04000025
:020000040000fa
:040158007e04000021
:020000040000fa
:04015c007e0400001d
:020000040000fa
:040160007e04000019
:020000040000fa
:040164007e04000015
:020000040000fa
:040168007e04000011
:020000040000fa
:04016c007e0400000d
:020000040000fa
:040170007e04000009
:020000040000fa
:040174007e04000005
:020000040000fa
:040178007e04000001
:020000040000fa
:04017c007e040000fd
:020000040000fa
:040180007e040000f9
:020000040000fa
:040184007e040000f5
:020000040000fa
:040188007e040000f1
:020000040000fa
:04018c007e040000ed
:020000040000fa
:040190007e040000e9
:020000040000fa
:040194007e040000e5
:020000040000fa
:040198007e040000e1
:020000040000fa
:04019c007e040000dd
:020000040000fa
:0401a0007e040000d9
:020000040000fa
:0401a4007e040000d5
:020000040000fa
:0401a8007e040000d1
:020000040000fa
:0401ac007e040000cd
:020000040000fa
:0401b0007e040000c9
:020000040000fa
:0401b4007e040000c5
:020000040000fa
:0401b8007e040000c1
:020000040000fa
:0401bc007e040000bd
:020000040000fa
:0401c0007e040000b9
:020000040000fa
:0401c4007e040000b5
:020000040000fa
:0401c8007e040000b1
:020000040000fa
:0401cc007e040000ad
:020000040000fa
:0401d0007e040000a9
:020000040000fa
:0401d4007e040000a5
:020000040000fa
:0401d8007e040000a1
:020000040000fa
:0401dc007e0400009d
:020000040000fa
:0401e0007e04000099
:020000040000fa
:0401e4007e04000095
:020000040000fa
:0401e8007e04000091
:020000040000fa
:0401ec007e0400008d
:020000040000fa
:0401f0007e04000089
:020000040000fa
:0401f4007e04000085
:020000040000fa
:0401f8007e04000081
:020000040000fa
:0401fc007e0400007d
:020000040000fa
:040200007e04000078
:020000040000fa
:040204007e04000074
:020000040000fa
:040208007e04000070
:020000040000fa
:04020c007e0400006c
:020000040000fa
:040210007e04000068
:020000040000fa
:040214007e04000064
:020000040000fa
:040218007e04000060
:020000040000fa
:04021c007e0400005c
:020000040000fa
:040220007e04000058
:020000040000fa
:040224007e04000054
:020000040000fa
:040228007e04000050
:020000040000fa
:04022c007e0400004c
:020000040000fa
:040230007e04000048
:020000040000fa
:040234007e04000044
:020000040000fa
:040238007e04000040
:020000040000fa
:04023c007e0400003c
:020000040000fa
:040240007e04000038
:020000040000fa
:040244007e04000034
:020000040000fa
:040248007e04000030
:020000040000fa
:04024c007e0400002c
:020000040000fa
:040250007e04000028
:020000040000fa
:040254007e04000024
:020000040000fa
:040258007e04000020
:020000040000fa
:04025c007e0400001c
:020000040000fa
:040260007e04000018
:020000040000fa
:040264007e04000014
:020000040000fa
:040268007e04000010
:020000040000fa
:04026c007e0400000c
:020000040000fa
:040270007e04000008
:020000040000fa
:040274007e04000004
:020000040000fa
:040278007e04000000
:020000040000fa
:04027c007e040000fc
:020000040000fa
:040280007e040000f8
:020000040000fa
:040284007e040000f4
:020000040000fa
:040288007e040000f0
:020000040000fa
:04028c007e040000ec
:020000040000fa
:040290007e040000e8
:020000040000fa
:040294007e040000e4
:020000040000fa
:040298007e040000e0
:020000040000fa
:04029c007e040000dc
:020000040000fa
:0402a0007e040000d8
:020000040000fa
:0402a4007e040000d4
:020000040000fa
:0402a8007e040000d0
:020000040000fa
:0402ac007e040000cc
:020000040000fa
:0402b0007e040000c8
:020000040000fa
:0402b4007e040000c4
:020000040000fa
:0402b8007e040000c0
:020000040000fa
:0402bc007e040000bc
:020000040000fa
:0402c0007e040000b8
:020000040000fa
:0402c4007e040000b4
:020000040000fa
:0402c8007e040000b0
:020000040000fa
:0402cc007e040000ac
:020000040000fa
:0402d0007e040000a8
:020000040000fa
:0402d4007e040000a4
:020000040000fa
:0402d8007e040000a0
:020000040000fa
:0402dc007e0400009c
:020000040000fa
:0402e0007e04000098
:020000040000fa
:0402e4007e04000094
:020000040000fa
:0402e8007e04000090
:020000040000fa
:0402ec007e0400008c
:020000040000fa
:0402f0007e04000088
:020000040000fa
:0402f4007e04000084
:020000040000fa
:0402f8007e04000080
:020000040000fa
:0402fc007e0400007c
:020000040000fa
:040300007e04000077
:020000040000fa
:040304007e04000073
:020000040000fa
:040308007e0400006f
:020000040000fa
:04030c007e0400006b
:020000040000fa
:040310007e04000067
:020000040000fa
:100400004f1221000eff24000e01880000000000a2
:10041000000020000000e000020032000001200087
:100420002002880014000700360107000000e000e9
:1004300003003a00c015220001002000020037002e
:100440000000200001002000810f70000100320038
:100450000f000700000020000000e0000200320052
:100460000000020000000000001f02000000000069
:100470000040da000000fe00800220000000e000e2
:1004800002003200002020009001880000000600d9
:10049000a1028800800478000000eb001f003700f4
:1004a000e284440054a0b4009905ba00e2844400f8
:1004b00054a0b4009906ba00e284440054a0b400e9
:1004c0000006eb00476fde00fd07b200ae018800ba
:1004d000636ce10003003a000ad801000000eb0061
:1004e0000e003700606ce10008003a00004deb00a0
:1004f0000a05e800020039003420ec000af0a000f0
:100500008b05e900f9ff3e00040037006168e10057
:10051000010032000086eb000b00070019c7ba008b
:100520000e04e0001905ba0003003a000a00e000da
:10053000dbff3a0000000600fe07b200ae028800b2
:100540008a047800f5ff37000cd0a300e20f4d00bd
:100550001c00390089027800354dba000a05e80010
:10056000020039003420ec000af0a0008b05e900fd
:100570000f003200254dba000a05e80002003900dc
:100580003420ec000af0a0008b05e90008003200de
:100590000c00e0000600320015cdba000a05e800a4
:1005a000020039003420ec000af0a0008b05e900bd
:1005b0008984e80054a0b4000b00e000e2ff3a0098
:1005c000000006009902ba00055d78008b05e9007d
:1005d000f7ff3200c82ade00055d78008b05e900d0
:1005e000f3ff32000c00e000f1ff320019ddba0029
:1005f000eeff3700bc1f040000000000362004009e
:10060000000000004421040000000000dc0604009b
:1006100000000000801f78000000fa0010c0b30046
:100620001cf0b7000068a9000080fa004f007800b5
:1006300000400600809fbe000000fa00000000009d
:100640001111800000102000008060000000e00018
:10065000fbff32000188a9000080fa004f00be00b5
:1006600000400600809fbe00821f78000000fa0054
:1006700010c0b30007f0b7002a0037003011800027
:100680000080880010118000620060000000e0001f
:10069000170032000200370030118000008088000f
:1006a00010118000610060000000e000faff3a00d5
:1006b0000430ef002222a9000230ef0008003700ca
:1006c0001080800081112100008040008040eb00fc
:1006d00001487800108080000000e8001080880049
:1006e00010808000e70f5000f5ff34001100370044
:1006f00020808000e70f5000010034000430ef003c
:1007000020808000018080008140780082112100db
:100710000000410001487800208080000000e800cf
:100720002080880010118000610060000000e0005f
:10073000d2ff3a0020808000e70f50000f00340005
:10074000f0112100104078008080fb00d0112100c2
:10075000104078000081fb00e0112100104078007b
:100760000080fb0000004100808f500002003a0032
:1007700010c0b30006f0b7000430ef000168a90014
:100780000080fa004f0178004f00be0000400600d4
:10079000809fbe000000fa00000000009111800060
:1007a00000102000008060000000e000fbff32002d
:1007b00003e8a9000080fa004f00be0000400600d8
:1007c000809fbe00821f78000000fa0010c0b300b6
:1007d00019f0b70035003700b01180009080880014
:1007e00090118000620060000000e00017003200fd
:1007f00002003700b01180009080880090118000c6
:10080000610060000000e000faff3a001630ef00df
:100810003222a9001430ef0008003700a0808000c9
:10082000210b2100008040008040eb00014878004f
:10083000a08080000000e800a0808800a0808000e8
:10084000f80f5000f5ff34001c0037009180800045
:10085000f00f20008080600010042000808f500086
:1008600005003200200b21009040780010c4b30036
:1008700080cf50000d003a00b0808000f80f50008b
:10088000010034001630ef00b080800091808000bd
:1008900081407800220b21000000410001487800cf
:1008a000b08080000000e800b080880090118000d7
:1008b000610060000000e000c7ff3a00b0808000e7
:1008c000f80f500008003400a00c21009040780080
:1008d00020c4b30080cf500002003a0010c0b30023
:1008e00018f0b7001630ef0003c8a9000080fa0026
:1008f0004f0178004f00be00004006000040da00c3
:100900000000fe0000000500839f68000100e00079
:1009100002003d0060001000e08018000300e000cd
:1009200002003d0060011100e08119008f00070006
:100930004f00e00002003b0060001000e080180063
:10094000000006000001be003f0007000470a70081
:1009500003f0a1006509b100160032000d0035005a
:100960006828e10006003500f0ff2f00f1ff2700a6
:100970000300e00013003b00010028000000050018
:1009800000004000818048008502e900fcff3a0039
:1009900008003700f88f420002003c008000eb00a6
:1009a000000005008100d1000080d3008502e8002e
:1009b000fcff3a000300e00002003b006000100072
:1009c000e0801800000006000001be001e000700c5
:1009d0000470a70003f0a10003f8a30013003a007d
:1009e0006509b10010003200090035006928e100f6
:1009f0000200350001002800000005000000400052
:100a0000818048008502e900fcff3a0000000600f2
:100a1000f88f4200050035008100d1000080d3002e
:100a20008502e800fcff3a00000006008000eb00b1
:100a3000000005004f89de00820178005e0037006b
:100a40006011b8006c003700c70ade00f107b20081
:100a5000f50fb20008003200e1cf42000200320080
:100a60000170a00024000500810f70000100320019
:100a70000408050044000500810f700002003a00e0
:100a8000140005008502e9000000400081c0480014
:100a9000fcff3b000170a00024000500889fbe0001
:100aa0008a9fbe008c1f7800a8000700af003300ab
:100ab00003866c006450e100240032006420e100f1
:100ac000270032006150e100220032006120e10085
:100ad000210032008b854200eb07b1000134b800e1
:100ae000003ab8000804420089844a00013ab8007c
:100af0000030b8008880400009014a00040033003b
:100b00000000400081804800020149008b05e90097
:100b1000c909dd00830170000100320013002000cc
:100b2000c814de004814dd004709de001200b200e0
:100b3000c808de00088470005e00070001f0a10014
:100b40000cf0a70001f0a000910037006120e10047
:100b5000930032000801be000200be00f7ff37001c
:100b60006150e100fcff3a008d0037006022b800c0
:100b7000060220000000d0008180d2000482d20052
:100b80008582d2000000a0000202520083825a0037
:100b9000030031000202420083824a000000a100eb
:100ba0000603e900f3ff3a0000000600efff07002c
:100bb0000400be0000000600881f780003047800cf
:100bc0000300e00007003d0060001000e080180016
:100bd00060011900e081190002003b0001f02d00c6
:100be000030037000400070008f0a70001f0a00090
:100bf0004f04780000000600889fbe008a9fbe0058
:100c0000008270000402710004827100260032002c
:100c10000004be000200be006011b8006b09200095
:100c2000950220000182cf000a0039000541b10081
:100c30000082cf00070039000541b1000982cf00d2
:100c4000040039000541b1000882cf0001003900dd
:100c50000541b10005425200120032000a003b007b
:100c600082817100610164008100d1000080d300a5
:100c70008984d3000884d3008b05e8000442e8008f
:100c8000f7ff3a00070037000804440089844c004d
:100c900000004800818048008b05e9000442e9001b
:100ca000f9ff3a00030007004f05be004f04be00e5
:100cb0000000060081002000618055000b003d000f
:100cc0000b00200061fe2f000100e1001d00340038
:100cd00082817100610164008904d1000884d3001d
:100ce0000000e800faff3a00710020006100640093
:100cf000030070000200600009003200610444003b
:100d0000e0844c000988a500050032008b05e8004e
:100d10006808e10002003a008904d1000884d30089
:100d2000f20f20000258e10005003d00c75ddd0024
:100d3000f907b200898075000800780000000600fd
:100d40000bf827008b007800000005000004be00af
:100d50003dff07000003be000405be000200be0008
:100d600039ff0700844f7500000006000200be0036
:100d70006450e100050036006420e1000200360006
:100d80000968a30001003a000800be000160a0004d
:100d90004f0678004f05be004f04be00000006005d
:100da000f0ff2f00f1ff2700f9ff3700a20020001d
:100db0008000eb0016003700881f780002047800de
:100dc00008017800cb000700080040004f047800bd
:100dd000000006000000fa00881f78000004780078
:100de000ea8157003fb9970088007800c06d200065
:100df000c70007000000e0000200350000044400c6
:100e0000004ceb004f0478000080fa000000060060
:100e1000ee874700889fbe008a9fbe008c9fbe0061
:100e20008e1f7800f0b79f000106780082057800d9
:100e300000047800080578000a047800b8467800b5
:100e40000d00fb008c0007000000e000f9ff3a00f5
:100e5000d0c2b30080cf56000300320000c0e900ca
:100e600080cf560002003a000a05e8000100370072
:100e7000804678000b00e00005003500e18f55004a
:100e80000300320040022000808f5500060034002d
:100e90006044b8000c00e000700032007fb09700a2
:100ea000000e78006d0037000b00e0000e003200ed
:100eb000f08f55001a003a0000c3b3009a4f10009b
:100ec00017003a001a40900081c7b300814f5000cc
:100ed0000300320081c5b300814f500010003a007a
:100ee0000a85e8000e003700ab00200000c3b30005
:100ef0009a4f10000a003a001a40900081c7b300d0
:100f0000814f5000040032008b00200081c5b300e7
:100f1000814f500002003a000a85e8000b012000d2
:100f20000a007800000278000400780001c3b300d2
:100f3000b0cf1000fbff3200040778006044b80017
:100f4000b4b79f000d00370001022100814050001e
:100f5000c1ef9f006159b9000800be0047040700b7
:100f60004fea97000401fb00cf91de00c8b79f0055
:100f7000d9b79f0002044000838448008e027800a5
:100f80003e00fb0085bf9f00430007000b01780077
:100f900080007800000221004c0007008fba970003
:100fa0000000e000e8ff3a003fb29700850f5500cf
:100fb00005003a006044b8000c00e0002700320051
:100fc000ffb2970024003700048252005004210031
:100fd0000b0040001000fb0000025200170033001d
:100fe00011003a004fe997000200fb00cf80de00bd
:100ff0000000540081805c00800f5400818f5c00f1
:10100000090039006159b90085bf9f00d7fe07006c
:101010008fba97004fb19700dfb19700820f500051
:10102000838f5800050032002002200000898800cc
:101030000084eb008084eb0005003700d0c2b300d1
:1010400080cf560002003a0060041400e0841c00c7
:101050000c00e00001003200050e78000800be0020
:101060004f0778004f06be004f05be004f04be007c
:10107000ef00b100000006006900e1000400350047
:101080006d00e100030034000002b10001003200f5
:101090000000050010000500800078001104b10078
:1010a000030035009101b10001003c000050a00098
:1010b00000000600108980000000e00001003200fe
:1010c00000000100001221000000060003003700ac
:1010d000b0cf1000050032000201e9008001780065
:1010e0000200e000faff3a0000000500030078006b
:1010f000000006008001780002003700b159780036
:101100000201e9000200e000fcff3a0000000600d6
:101110006200fa00889fbe008a1f780000057800f0
:1011200081047800020478008300780080f92f00a1
:101130000f004000cf0307009a979f00a9979f00d8
:101140000000eb00b09f9f001885fb008a04fb00a5
:101150000a05ea004f55de0050022000808f54003f
:101160000d003200e10f55000b003a000a01780033
:10117000880078002f9097009f919700030001004e
:10118000a0979f000000e0008e0032003f9897007b
:101190000000e800b09f9f000a04440050022000b5
:1011a000808f5400040032000900e000e6ff3a009e
:1011b0003f989700840037000000eb00909f9f004d
:1011c000809f9f00f0979f00e0979f00d0979f001f
:1011d000c0979f0007003700211121000100500037
:1011e0000000400061102100808040005f9897005f
:1011f00011007000d09f9f008804780009047800d7
:10120000384578008a00fb00201121009401070076
:101210000000e000f0ff3a00a1c2b300814f55008a
:101220000e003a00cf8897000180e900c08f9f0030
:1012300010007800c09f9f000000e00005003d0006
:101240000000ea00c09f9f005f9897000020a00068
:10125000d09f9f000904e8000f003700c09f9f0047
:101260000000eb0005003700f2ff2700820f50005e
:1012700002003200ea00b900008040000904780052
:1012800088047800b900fb000103b100e98f500029
:10129000f5ff3600c09f9f00e0c2b300984f1000da
:1012a000020032000080eb0019003700a0c2b3003a
:1012b000d84f100007003a00cf8897000180e9005e
:1012c000c08f9f0010007800a09f9f000804e800d6
:1012d000100037000000eb00a09f9f0088007800fe
:1012e00005003700f3ff2700830f50000200320093
:1012f000ea00b9000000410001047800880078008d
:101300003101fb000203b100e90f5100f5ff360087
:10131000a09f9f00984478008900fb00e00f210007
:101320004f0107000000e000020032000804e8005e
:10133000010037008044eb00c97f9f0080c6b300e6
:1013400080cf540004003a0098cf14000a003a00fd
:101350006640500006003700c0c6b30080cf54007e
:1013600005003a0098cf140003003a0065404000a1
:10137000c07f9f000804e8001801fb00e3fb2f007a
:101380008f81410081f92f008f804000a0f92f004c
:101390000f004000100007000000e00009003a00c4
:1013a000e1fb2f008f804000a0f92f000f004000cc
:1013b000740207000000e000020035000804e800a5
:1013c00061ff37000080eb004f0578004f04be003e
:1013d0000080fa0000000600889fbe008a9fbe00c1
:1013e000e4c6b300844f5100ce00320010003c0030
:1013f0006b425200844f51001800320005003c003f
:1014000054c2b300844f51000601320084c5b300ba
:101410000f00370044c6b300844f5100150032005e
:1014200065424200844f510001013a00110037002b
:1014300004c7b300844f5100ed0032005f00350057
:1014400065424200844f51005c003200634242001a
:10145000844f5100f6003a00580037001181e9002e
:1014600082087800f0009000818141009249780064
:10147000f500370020629000c5c6b300854f5200ca
:1014800008003a00910278006482520084087800d3
:1014900094029000140278004fabde0086037800bf
:1014a0001600370015c7b300854f520003003a00fd
:1014b000110478006802540005003700a5c6b30087
:1014c000854f520008003a00910478006882540069
:1014d000840878009402900024039000b4039000e4
:1014e00014027800050037001182e90084087800b2
:1014f00014027800cfa2de00612bb9000498be0070
:101500000690be00a060900088c6b30088cf50004f
:101510000d00320028c6b30088cf500004003a0006
:101520000402fb00cfa2de00612bb90008003700e7
:1015300048c7b30088cf500003003200664444001f
:1015400088cf500004003a00cfa2de00612bb90022
:101550000498be000690be00100278009002900031
:1015600020039000b0039000f0009000e00f5200c4
:10157000e08f5a00e00f5b00e08f5b0003003d004e
:1015800001824100d5c2b3000a003700001290006a
:101590000418a3000300320001824100b5c2b30069
:1015a000040037000408a300590032000182410002
:1015b00005c2b300054a780053003700206290004e
:1015c000c5c6b300854f520009003a0011057800e6
:1015d0006402550084087800140478009404900094
:1015e0006055b8000802be000a03be0016003700ae
:1015f00015c7b300854f520003003a0091047800ec
:101600006882540005003700a5c6b300854f52001c
:1016100008003a0011057800680255008408780037
:101620009402900024039000b40390001402780008
:10163000050037001182e900840878001402780060
:101640008002eb006033b8000498be000690be0034
:10165000a060900088c6b30088cf50000d00320013
:1016600028c6b30088cf500004003a000482fb0073
:101670008002eb006033b8000800370048c7b300b1
:1016800088cf5000030032006644440088cf5000e9
:1016900004003a008002eb006033b8000498be00fa
:1016a0000690be00801090000138a30018003200a0
:1016b000100278009002900020039000b003900088
:1016c000e00f5200e08f5a00e00f5b00e08f5b00fc
:1016d0000f00320081c7b300814f51000300320078
:1016e00081c5b300814f510009003a00f00090001d
:1016f0000182410005c3b300054a78008100e8007b
:1017000001824100024a78008100e80071009800df
:10171000f0009000818141006300980082407800d1
:101720003e003700a0619000c4c6b3001181e900fb
:1017300084cf5100220032000a003c006442520073
:1017400084cf51002500320004c2e80084cf51004c
:10175000130032006842520084cf51001e003a004c
:101760000a00370044c7b30084cf51001b00320089
:101770006642420084cf5100180032006942520094
:1017800084cf510014003a00050037008208780029
:101790009200780040589000804878002c00370074
:1017a0008208780092007800600a9000cfa2de00e4
:1017b000612bb9008498be008690be0024003700db
:1017c000820878009200780060099000cf91de00d6
:1017d0008288be001e0037001181e900820878006f
:1017e00092007800600890008008780018003700a8
:1017f0001181e9008208780012027800cfa2de0091
:10180000612bb9000498be000690be00f000900065
:10181000818141006300980081c7b3001c0007006c
:101820000b003700f0009000818141000500370077
:10183000f0009000818141000204e00001003a00c4
:1018400052c2b300824978008100e800710098001c
:101850000000eb004f05be004f04be000000060074
:10186000020037000304e0000600320000017800a7
:1018700002007800b041780081cf5100f9ff3a00b2
:10188000010037000001eb000200780000000600b4
:10189000fc874700889fbe008a9fbe008c9fbe00c9
:1018a0008e1f78000006780080c5b30080cf5000fe
:1018b0000a0032007740400080cf50000a0032001a
:1018c0006940400080cf50000b003200d00e210054
:1018d00080bf9f00ae0020000a003700c20d21002b
:1018e00082bf9f0006003700d30e210083bf9f00f8
:1018f0008e00200003003700d40e210084bf9f001b
:101900000e0120001c0278009c0290002c03900025
:10191000bc0390000605be000404be0040c6b30030
:1019200080cf5000030032006540400080cf50005f
:101930000b003a00e00f5200e08f5a00e00f5b000e
:10194000e08f5b0006003d006000b8006011b80049
:101950000404500085845800060559008785590005
:10196000e80f57000400320040002000f00f57003d
:101970003c003a000100370030002000e00f540026
:10198000e08f5c00e00f5d00e08f5d0004003a0036
:10199000dc0890008d0120000100e000070032000b
:1019a0008e00e900888060008fba97008180420035
:1019b00091407800f1ef9f007d01200080007800c9
:1019c0008100e900050033008b05d1000a85d300b2
:1019d0008984d3000884d300f9ff3700089ebe0035
:1019e0000a96be00130037008d06e9008e00e9005c
:1019f000848060000fb99700810041001141780098
:101a000083fd2f008d81410082f7790080017800ed
:101a10008301e900050033008783d1000683d300ea
:101a20008582d3000482d300f9ff3700049ebe00f4
:101a30000696be001c0278009c0290002c039000c9
:101a4000bc039000e00f5200e08f5a00e00f5b00f3
:101a5000e08f5b00930034000d00e000e2ff3c00eb
:101a6000900037002c60900081c6b300814f500079
:101a70000b00320006003c000004e00008003200c9
:101a8000e6c05000814f500052003a000400370079
:101a9000c1c6b300814f50004e003a00230037000a
:101aa0000800e00004003a005c0890008d0120006e
:101ab0000000e00007003200110009000e84d80089
:101ac0000fba97000100420010407800f0ef9f002d
:101ad0007d012000110009000e84d8000b003700a2
:101ae000110009000e04d8008d06e9008e81b900ae
:101af000020454008fb89700088440009841780091
:101b000082fd2f000d0141008377790000047800e9
:101b10000800e000020032000d00e000f0ff3c0091
:101b2000cfc4de00614db90027003700e00f54003c
:101b3000e08f5c0004003a005c0890008d012000fa
:101b40000000e000080032006171b9000800be002a
:101b500016fc07000fba9700800042009140780001
:101b6000f1ef9f007d0120006171b9000800be0007
:101b7000fefb07000c0037006171b9000800be00d1
:101b800061fb07008d06e90080f1b90002045400f2
:101b90008fba9700088442009841780082fd2f0098
:101ba0000d014100837779000004be00e00f500072
:101bb000e08f5800020032000d00e000eeff3c0014
:101bc0004fcdde008a057800089ebe000a96be0052
:101bd00034003700e00f5400e08f5c00e00f5d0040
:101be000e08f5d0004003a005c0890008d01200049
:101bf0000000e0000a0032006172b900612bb900f8
:101c00000800be000a01be00c40107000fba970019
:101c10008000420091407800f1ef9f007d0120009c
:101c20006172b900612bb9000800be000a01be0054
:101c3000b30107000e0037006172b900612bb900d3
:101c40000800be000a01be00b80107008d06e900c9
:101c500080f2b900040454008fba9700088442004f
:101c60009842780084fd2f000d02420085777a00ab
:101c7000009ebe000296be001c0478009c049000ea
:101c80002c059000bc059000e00f5400e08f5c0034
:101c9000e00f5d00e08f5d00020034000d00e00009
:101ca000e5ff3c00e80f570010003a000c109000d0
:101cb0000038a3000d003200f78f560006003e00ea
:101cc00080fd2f000d004000ef40780000c3b300fe
:101cd00080cf50000500320002c3b30071fd2f0019
:101ce0008d8040008d06e90082f77800788116002b
:101cf000120e98006c00900083fd2f008f81410030
:101d00008d804100fbfc07001c089000dc0890005f
:101d1000810f500006003d0000805000000e98002a
:101d20000c1090000040a100001698000f00370032
:101d30000100e0000d003d008c109000f480600078
:101d4000f08f500009003a007c099000fc009000e0
:101d5000810051000c0990008280500000805000ea
:101d60004240a90001003400000e98004f0778009f
:101d70004f06be004f05be004f04be00cf01b100ac
:101d8000000006000400fa00889fbe008a9fbe0083
:101d90008c1f78000004780001067800f80d900090
:101da00078009000808555000808900080855500d7
:101db00018089000808555002808900080855500ff
:101dc00038089000808555004808900080855500af
:101dd0000002220090bf9f0000032300a0bf9f00cd
:101de000081090000028a30015003a000b00e00046
:101df000130034000b0578008a047800e20f5500c8
:101e00000100360029002000c80190000901780077
:101e1000ee80570058009000030001005004980025
:101e20000000e0008c0032006808900009004000cb
:101e3000600c9800090555004240a900eeff3c00e7
:101e4000780190000200e0000c003400c80190000e
:101e50008c007800580090000300010050049800a6
:101e60008080eb000000e0007c003200e808900079
:101e70007800900000804000600c9800880c900072
:101e80000900e0001100340009057800e28f5400d9
:101e9000010036002a002000c80190000a017800e5
:101ea000ec80570058009000030001005004980097
:101eb0000000e00068003200680890000a0040005e
:101ec000600c98008a845400edff370018099000d8
:101ed0000200e0000c003400c8019000e80090000f
:101ee0005800900003000100500498008080eb002f
:101ef0000000e00059003200e80890001808900047
:101f000000804000600c9800a80c90000900e000e0
:101f10001100340009057800e28f540001003600fa
:101f20002a002000c80190000a017800ec805700c8
:101f30005800900003000100500498000000e000e9
:101f400045003200680890000a004000600c9800cc
:101f50008a845400edff3700380990000200e00049
:101f60000e003400e80090001808900080804000c7
:101f7000c801900058009000030001005004980030
:101f80008080eb000000e00034003200e8089000a0
:101f90003808900000804000600c9800c80c900049
:101fa0000900e0001100340009057800e28f5400b8
:101fb000010036002a002000c80190000a017800c4
:101fc000ec80570058009000030001005004980076
:101fd0000000e00020003200680890000a00400085
:101fe000600c98008a845400edff370008109000c0
:101ff0008000eb000028a300180032000b00e00076
:10200000160034008b04780009057800e28f540034
:10201000010036002a002000c80190000a01780063
:10202000ee80570058009000030001005004980013
:102030000000e00008003200680890000a0040003c
:10204000600c98008a8454004240a900eeff3c00d6
:102050008000eb00010037008080eb000100780079
:102060004f0678004f05be004f04be000080fa0006
:10207000000006000108780000000600020ab9000e
:10208000001bb9000200b80081004200810043003b
:1020900000000600889fbe008a9fbe0030044200f8
:1020a000b0844a0030054b0090854b006000b100c1
:1020b0000898be000a90be000440e10005c8e10097
:1020c00006d0e10007d8e1000200310068004000be
:1020d0001008e8004f05be004f04be0000000600d7
:1020e000889fbe008a9fbe00100478009004900074
:1020f00020059000b00590000418540005985c007d
:1021000006185d0007985d00110020000440e10002
:1021100005c8e10006d0e10007d8e1000100390060
:102120008000eb00108810004f05be004f04be0079
:10213000000006001200fa00889fbe008a9fbe00c1
:102140008c9fbe00e0b79f00f1b79f0082bf9f0049
:1021500093bf9f000605be000404be000000eb0014
:10216000d0b79f00c0b79f00b0b79f00a0b79f0037
:1021700090b79f000006eb005fb19700cfb09700cb
:10218000820141003fb097000200e00004003d00e2
:10219000370007007e805700beff070003003700ae
:1021a000330007007e805700cdff0700dfb69700a1
:1021b0000d00e0000c0035006fb29700ffb29700f1
:1021c0000fbb97009fbb970010002000010020006c
:1021d0006011b80000027200818272000203730075
:1021e000838373001b0007000c06e8000104200035
:1021f000810f5600e0ff3a000d00e00004003d00b2
:102200000802be000a03be007e805700a1ff07003f
:102210005fa897000000e00005003a001fb2970099
:10222000afb297003fb39700cfb397000900070004
:102230006fb09700ffb097000fb997009fb9970054
:102240004f06be004f05be004f04be000080fa00de
:10225000000006000100070000000600a4b79f0070
:10226000b5b79f00c6b79f00d7b79f000000060014
:102270004f09de0082817100b3b79f004f01de007d
:102280008180400082807000a1b79f008fb09700ce
:102290004f09de00000040000200700090b79f0070
:1022a0007fa897004f01de0081804000828070008f
:1022b00081b79f000d0007004f3ade00000040008c
:1022c00004007000f0af9f00080007000402420005
:1022d00085824a0006034b0087834b00dfff07001f
:1022e0000802be000a03be00000006002fb29700dd
:1022f000bfb297004fb39700dfb39700000006000e
:10230000881f780018002000881f780089ff0700c8
:102310008f87e9004f04780000000600801feb0063
:1023200084ff07008f87e90000000600889fbe0039
:102330008a9fbe00e00f5000e08f5800e00f590068
:10234000e08f59000c003d006044b8006055b800b3
:102350000000540081805c0002015d0083815d000b
:10236000180020001500070008003d0018000700b5
:102370000004eb00050037000004eb000f0007002d
:1023800002003d001200070018002000dcff0700db
:102390000800e000060032006022b8006033b80098
:1023a0000000520081805a0002015b0083815b00c3
:1023b0004f05be004f04be0000000600e00f5200b3
:1023c000e08f5a00e00f5b00e08f5b00000006002a
:1023d0006044b8006055b8000402540085825c0077
:1023e00006035d0087835d0000000600889fbe0035
:1023f0008a9fbe008c1f7800e00f5000e08f5800cd
:10240000e00f5900e08f59000d003d006044b80016
:102410006055b8000000540081805c0002015d003e
:1024200083815d001c0020000820e10009a8e10074
:102430000ab0e1000bb8e1000d003d0008003700d4
:102440000006eb00e00f5200e08f5a00e00f5b0047
:10245000e08f5b0006003d006044b8006055b800a6
:102460000402540085825c0006035d0087835d00e2
:10247000aaff07000c00e000060032006022b8004e
:102480006033b8000000520081805a0002015b00f6
:1024900083815b004f0678004f05be004f04be00ed
:0424a0000000060032
:020000040000fa
:1024a400256c0000640000004147000058580000fb
:1024b40058580000585800003030000030300000f8
:1024c4004147000058580000585800005858000070
:1024d4003030000030300000420000003ea2000016
:1024e40001040000e5a000008c000000002c0000a6
:020000040000fa
:1024f4000200fa000000eb00000f78000100370032
:102504001e0fe80084d524000500200082bb2000b3
:1025140011c0b30010c0b300cc0407000004e000f5
:10252400060032001e007800e40f5000f4ff34006f
:10253400030037001e0fe800010037000000000010
:10254400042f2d00050020008232220011c0b300a8
:102554000040eb00bd0407000004e000030032006b
:102564001e007800e40f5000f2ff340096060700c6
:10257400c07080004700de006140600000c0ea00d7
:10258400614060000080fb00610060004700dd00e6
:10259400c2708000f1f72f0081006100010070001b
:1025a400c07088000000000014000700e14f5000d4
:1025b400fdff3200c07080004700de006140600013
:1025c40000c0ea00614060000080fb006100600020
:1025d4004700dd00c2708000f1f72f008100610028
:1025e40001007000c070880005e1a90020002000ef
:1025f400508088000080fa00000006000400fa0001
:102604000040eb00004f78001cd0bf00e14f5000a9
:1026140068003a00190ea80051c0b300e008210078
:10262400c3050700808920008f060700190ea90042
:10263400803e20008c06070007d0bf00e14f500009
:1026440057003a0080bb20008706070006d0bf0071
:10265400e14f50000e0032000230ef000800370056
:102664001080800081112100008040008040eb0038
:1026740001487800108080000000e8001080880085
:1026840010808000e70f5000f5ff3400440037004d
:102694000430ef000670ef00e011210010407800d4
:1026a4000080fb00c800dd00d0112100104078003c
:1026b4000080fb0000804000100798000cd0bf0091
:1026c4000004e00005003a001e00900080808800ad
:1026d40010c0b3000cf0b700240037000cd0bf00ca
:1026e400e14f500021003a00808080009e0090005d
:1026f4008080500020032000808f500002003e00a4
:10270400808080000800370080808000800078008e
:102714001e0090008080500020032000808f500015
:1027240010003e00808080000230ef000800370077
:102734001080800081112100008040008040eb0067
:1027440001487800108080000000e80010808800b4
:1027540010808000e70f5000f5ff34000040eb00cc
:10276400150037001e009000808088000230ef00c2
:102774000800370010808000811121000080400093
:102784008040eb0001487800108080000000e800e1
:102794001080880010808000e70f5000f5ff34009f
:1027a4000770ef000430ef001c70ef0010c0b3009e
:1027b4000100370010c0b3000080fa0000000600da
:1027c4001200fa00100798002107980032079800b9
:1027d4004307980054079800650798007607980007
:1027e400070f98000000eb00000f7800ae00900087
:1027f400703e2000808f500025003a001e0090009b
:10280400e10f50000f003a00010037001e0fe800ee
:102814003e009000ea00b90084d5240005002000a1
:102824000001780011c0b30010c0b3000704070012
:102834000004e000030032001e007800e40f5000a2
:10284400f2ff34001e0090000000e0000e003a0089
:10285400010037001e0fe8003e009000ea00b900b6
:102864006022b8000001780011c0b30010c0b300aa
:10287400f60307000004e000030032001e007800a5
:10288400e40f5000f3ff340010c0b30008f0b700a9
:102894002e0090000000e0000d003a0008d0bf00b8
:1028a400e14f50000a003a00010037001e0fe80013
:1028b40010c0b300e50007000004e000030032008c
:1028c4001e007800e40f5000f8ff34000870ef0099
:1028d400ee009000703e2000808f500047003a00c8
:1028e4005e009000e10f50001f003a0010c0b300da
:1028f4000df0b7000e70ef000040eb00530007002e
:10290400010037001e0fe80050808000cf80de00f9
:1029140002ca28008289b900e002b9008401780063
:102924000301410003ca28000300b800010141006b
:10293400820078007e019000ea11b9000002be0016
:1029440011c0b3000040eb00c00307000004e00026
:10295400030032001e007800e40f5000e9ff340049
:1029640020002000f08088005e0090000000e0005d
:1029740020003a0010c0b3000ef0b7000d70ef0055
:102984000040eb0031000700010037001e0fe80093
:10299400508080000000e900cf80de0002ca2800d9
:1029a4008289b900e002b900840178000301410082
:1029b40003ca28000300b800010141008200780026
:1029c4007e019000ea11b9000002be0011c0b300fc
:1029d4000040eb009d0307000004e0000300320008
:1029e4001e007800e40f5000e8ff3400300020009f
:1029f400f080880010c0b30009f0b7006e009000aa
:102a04000000e0000f003a0009d0bf00e14f500081
:102a14000c003a00010037001e0fe8000040eb00f4
:102a24008a0007000004e000030032001e00780062
:102a3400e40f5000f8ff34000970ef000d70ef0050
:102a44000e70ef000080fa00000006000600fa0095
:102a5400404798000040eb00004f7800190ea80092
:102a640051c0b300e0082100b104070080892000b0
:102a74007d050700190ea900803e20007a05070095
:102a840007d0bf00e14f50006c003a00c0708000d6
:102a94004700de006140600000c0ea006140600061
:102aa4000080fb00610060004700dd00c270800010
:102ab400f1f72f008100610001007000c0708800f0
:102ac40080bb20006805070006d0bf00e14f50001e
:102ad4001000320080112100db0507000230ef00f6
:102ae4000800370010808000811121000080400020
:102af4008040eb0001487800108080000000e8006e
:102b04001080880010808000e70f5000f5ff34002b
:102b14004a0037000430ef000670ef00e011210096
:102b2400104078000080fb00c800dd00d0112100b7
:102b3400104078000080fb000080400010079800df
:102b44004e4090000004e0002f003a000dd0bf007a
:102b5400e14f50000e003a00b1be20001e0090006c
:102b640000805000fe0f500009003e00508080009d
:102b7400e30f500006003c00f0808000e20f50009c
:102b840003003a00508080000000e8005080880074
:102b94000ed0bf00e14f50001b003a009e00900091
:102ba40050412f0000804000fe0f500016003e00f0
:102bb40050808000e10f500013003400f08080004a
:102bc400e30f500010003a00c07080004700de00a0
:102bd4006140600000c0ea00614060000080fb00ca
:102be400610060004700dd00c2708000f1f72f0033
:102bf4008100610001007000c07088005080800076
:102c04000000e900508088000230ef00080037001f
:102c14001080800081112100008040008040eb0082
:102c240001487800108080000000e80010808800cf
:102c340010808000e70f5000f5ff34000770ef00ac
:102c44000430ef000080fa00000006000600fa00dd
:102c540040479800190ea8004e4090000000fb0069
:102c6400ea00b900800078003009210000804000ab
:102c7400a1c0b3002e04070080892000fa040700d5
:102c8400190ea900803e2000f704070007d0bf00fa
:102c9400e14f500024003a0080bb2000f2040700fa
:102ca40006d0bf00e14f50000e0032000230ef00aa
:102cb400080037001080800081112100008040004e
:102cc4008040eb0001487800108080000000e8009c
:102cd4001080880010808000e70f5000f5ff34005a
:102ce4000f0037000430ef000670ef000230ef00f1
:102cf400080037001080800081112100008040000e
:102d04008040eb0001487800108080000000e8005b
:102d14001080880010808000e70f5000f5ff340019
:102d24000770ef000430ef000770ef000430ef008d
:102d3400190ea8004e4090000000fb00ea00b90004
:102d4400800078003009210000804000a1c0b30059
:102d5400f703070080892000c3040700190ea900a7
:102d6400803e2000c004070007d0bf00e14f5000a0
:102d7400a5003a0080bb2000bb04070006d0bf00ba
:102d8400e14f50000f0032000230ef00080037001e
:102d94001080800081112100008040008040eb0001
:102da40001487800108080000000e800108088004e
:102db40010808000e70f5000f5ff340010c0b3000e
:102dc400940037000430ef000670ef00e01121009a
:102dd400104078000080fb00c800dd00d011210005
:102de400104078000080fb0000804000cf80de00af
:102df400008fbe004e4090000004e00047003a00ff
:102e0400b0be2000010020001e0178009e01900049
:102e1400800f5100818f59000500360050412f006a
:102e2400f1ff2f001e0f40005e9748001e00370080
:102e3400b0be2000010020001e0178009e01900019
:102e4400800f5100818f59000c003a00f0808000ff
:102e5400e20f500003003a00f0ff200001002000c0
:102e6400008fbe00f0808000e30f50000e003a0097
:102e74006000b800008fbe000b003700a0be200029
:102e8400010020001e0178009e019000800f510077
:102e9400818f590004003e004041200001002000c1
:102ea4001e0f40005e9748001e0078009e009000b0
:102eb400e2f60700e2fb2900c3102400f6f607003f
:102ec400c0f60700008fbe00508080000000e900bb
:102ed400cf80de0002ca28008289b900e002b9006e
:102ee400840178000301410003ca28000300b800ec
:102ef40001014100820078001e0f40005e974800e7
:102f04001e0078009e0090000002be00027d20009a
:102f140011c0b3004e4090004c0207004e40900098
:102f2400e14f500029003a001e0078009e009000f6
:102f3400e00f5000e08f5800100032001e007800af
:102f44009e009000bdf60700e2fb2900c310240098
:102f5400d1f607009bf60700008fbe001e00780024
:102f64009e0090000002be0082bb200011c0b3008e
:102f74004e40900035020700140037001e00780010
:102f84009e009000e00f5000e08f58000f003a00c0
:102f94001e0078009e009000a8f60700e2fb2900be
:102fa400c3102400bcf6070086f60700008fbe009d
:102fb4001e0078009e0090000002be0082bb20002c
:102fc40011c0b3004e409000200207000230ef0011
:102fd400080037001080800081112100008040002b
:102fe4008040eb0001487800108080000000e80079
:102ff4001080880010808000e70f5000f5ff340037
:103004000040eb00030037000770ef000430ef00ce
:1030140010c0b3000080fa00000006002e00fa0081
:1030240060252900ef00470018000900b058780017
:103034009001b1000040eb00604f9800190ea80009
:10304400d0092100a1c0b300390307008089200002
:1030540005040700190ea900803e200002040700a1
:1030640007d0bf00e14f500073003a0080bb20003e
:10307400fd03070006d0bf00e14f50000e003200f0
:103084000230ef0008003700108080008111210019
:10309400008040008040eb000148780010808000f0
:1030a4000000e8001080880010808000e70f5000c6
:1030b400f5ff34005e0037000430ef000670ef00c7
:1030c400e0112100104078000080fb00c800dd0002
:1030d400d0112100104078000080fb0000804000e7
:1030e400cf80de0050079800610798005e009000d2
:1030f400ee009000e00f5000e08f58001000340004
:103104005e009000ee00900049f60700e2fb290003
:10311400c310240060f6070009f607005007980062
:10312400610798005e029000ee0290008238210050
:1031340011c0b30010c0b300c40107002f00370052
:103144005e009000ee009000e00f5000e08f580009
:1031540010003a005e009000ee00900034f6070084
:10316400e2fb2900c31024004bf60700f4f5070026
:1031740050079800610798005e029000ee029000ec
:103184008238210011c0b30010c0b300af010700a2
:103194001a0037005e009000ee009000e00f50002f
:1031a400e08f580015003d005e009000ee00900096
:1031b40060001000e0801800500798006107980034
:1031c4005e009000ee00900019f60700e2fb290073
:1031d400c310240030f60700d9f507005007980003
:1031e400610798005e029000ee0290008238210090
:1031f40011c0b30010c0b300940107000230ef0007
:1032040008003700108080008111210000804000f8
:103214008040eb0001487800108080000000e80046
:103224001080880010808000e70f5000f5ff340004
:103234000770ef000430ef005e019000ee01900093
:1032440032079800430798003e009000ce0090009b
:10325400e00f5000e08f5800110034000000eb0034
:10326400000f7800080037003e009000ce00900068
:10327400a200200003002000a2f5070030079800f8
:10328400410798001e0fe8003e009000ce00900019
:10329400e00f5000e08f5800f3ff3c0002003700bd
:1032a40010002000000f7800820220000e0141006f
:1032b4005e009000ee009000809fbe002025290053
:1032c400801f780002007800c1f60700e6875700e7
:1032d4002000200020079800070037002e009000ef
:1032e4006f00400001c3b300017778002e00900006
:1032f4000000e800200798002e009000e70f50001f
:10330400f6ff34000000eb00100798000b003700b4
:103314001e009000670010009e00e9008102b000ca
:10332400eec078006f004000017778001e0fe900be
:103334001e0090000000e800100798001e007800ae
:103344000000e000f2ff3c00190ea8003009210043
:10335400a1c0b30076020700808920004203070061
:10336400190ea900803e20003f03070007d0bf00cc
:10337400e14f50007a003a0080bb20003a03070076
:1033840006d0bf00e14f50000e0032000230ef00c3
:103394000800370010808000811121000080400067
:1033a4008040eb0001487800108080000000e800b5
:1033b4001080880010808000e70f5000f5ff340073
:1033c400650037000430ef000670ef00e0112100c3
:1033d400104078000080fb00c800dd00d0112100ff
:1033e400104078000080fb0000804000cf80de00a9
:1033f40050079800610798005e019000ee0190006c
:10340400b0be200001002000800f5100818f5900c0
:10341400090034005e019000ee01900050412f003d
:10342400f1ff2f00020040008380480050079800fd
:10343400610798001a0037005e019000ee019000c9
:10344400b0be200001002000800f5100818f590080
:1034540004003a006000b800500798006107980023
:103464000f0037005e019000ee019000a0be200026
:1034740001002000800f5100818f590008003c009a
:103484005e019000ee0190005041200001002000f8
:1034940002004000838048005007980061079800ac
:1034a4005e009000ee00900061f50700e2fb290049
:1034b400c310240078f5070021f507005007980091
:1034c40061079800508080000000e900cf80de0092
:1034d40002ca28008289b900e002b9008401780098
:1034e4000301410003ca28000300b80001014100a0
:1034f400820078005e019000ee019000020040001e
:103504008380480050079800610798005e0290008d
:10351400ee029000027d200011c0b3000040eb00d9
:10352400ca0007000230ef00080037001080800056
:1035340081112100008040008040eb0001487800a8
:10354400108080000000e800108088001080800057
:10355400e70f5000f5ff34000770ef000430ef0070
:103564005e019000ee019000320798004307980036
:103574003e009000ce009000e00f5000e08f580015
:10358400110034000000eb00000f78000800370041
:103594003e009000ce009000a20020000300200016
:1035a400d8f4070030079800410798001e0fe80080
:1035b4003e009000ce009000e00f5000e08f5800d5
:1035c400f3ff3c000200370010002000000f7800d9
:1035d400820220000e0141005e009000ee00900087
:1035e400809fbe0020252900801f780002007800fb
:1035f400f7f50700e6875700e00020002007980051
:10360400070037002e0090006f00400001c3b30094
:10361400017778002e0090000000e8002007980051
:103624002e009000f30f5000f6ff34000000eb0072
:10363400100798000b0037001e0090007300100064
:103644009e00e9008102b000eec078006f004000e7
:10365400017778001e0fe9001e0090000000e800ca
:10366400100798001e0078000000e000f2ff3c0004
:103674000000eb001007980008003700210b210020
:103684001e009000008040008040eb00014878005c
:103694001e0090000000e800100798001e00900033
:1036a400f80f5000f5ff34006e4890000043b0005e
:1036b400205f98006f00470091012000c8020700b6
:1036c4000080fa00000006000c00fa000000eb0085
:1036d400000f7800080037001e80e800210b21004d
:1036e40000804000904078001e0178006600410090
:1036f400017778001e0fe8001e007800e40f5000e8
:10370400f5ff340010c4b300304f98006600470042
:10371400a5f50700cf80de00100798002107980068
:103724002e009000ea01b9001e009000e000b900ec
:10373400000141009e009000a00020000008b80095
:1037440001014100820078000002be00823821009d
:1037540011c0b30010c0b3003c0007000000eb0030
:10376400000f7800090037001e0378006e00430044
:10377400210b210000804000904078001e01780059
:1037840066004100017778001e0fe8001e007800f3
:10379400e40f5000f4ff340010c4b300304f98001d
:1037a4006600470080f50700cf80de001007980010
:1037b400210798001e009000ae00900002e1200056
:1037c40003002000f8f40700100798002107980070
:1037d4002e009000ea01b9001e009000e000b9003c
:1037e400000141009e009000a00020000008b800e5
:1037f4000101410082007800528080000201e9004a
:10380400cf91de0004ca2800849ab900e013b900fd
:10381400860278000502420005ca28000511b80096
:1038240003024200840178000000410081804900c5
:103834000002be008238210011c0b3000040eb003a
:10384400020007000080fa00000006000c00fa00e5
:10385400889fbe004047980051479800320798005f
:1038640044079800550798000040eb00004f78008b
:10387400190ea8005e409000e14f500028003a0065
:103884004e4090000000fb00b1062100f200b90098
:1038940000804000670040008040eb000148780051
:1038a4004e4090000000fb00b1062100f200b90078
:1038b40000804000680040008040eb000148780030
:1038c4004e4090000000fb00b1062100f200b90058
:1038d40000804000690040008040eb00014878000f
:1038e4004e4090000000fb00b1062100f200b90038
:1038f400008040006a0040008040eb0001487800ee
:103904004e4090000000fb00b1062100f200b90017
:10391400008040006b0040008040eb0001487800cc
:103924005e4090000004e0002e003a004e0090003b
:10393400de00900060001000e0801800400798004e
:10394400510798004e4090000000fb00b106210092
:10395400f200b900008040006700400080c0eb0026
:10396400014878004e4090000000fb00b1062100a1
:10397400f200b900008040006800400080c0eb0005
:10398400014878004e4090000000fb00b106210081
:10399400f200b900008040006900400080c0eb00e4
:1039a400014878004e4090000000fb00b106210061
:1039b400f200b900008040006a00400080c0eb00c3
:1039c400014878004e4090000000fb00b106210041
:1039d400f200b900008040006b00400080c0eb00a2
:1039e400014878004e4090000000fb00ce0090009b
:1039f40081407800b2062100f200b90000004100c5
:103a040064004000014878004e4090008001fb00b3
:103a14004e009000de0090004809dd004804de00fe
:103a240008047100c88cde0088407800b2062100ca
:103a3400f218b90000004100650040000148780018
:103a44004e4090008001fb004e009000de0090008c
:103a5400408bde00cf8bde0086407800b20621006a
:103a6400f218b900000041006600400001487800e7
:103a74004e4090000000fb00be00900081407800a2
:103a8400b2062100f200b900000041006c004000c1
:103a9400014878004e4090000000fb00be009000fa
:103aa400c808de0081407800b2062100f200b900a7
:103ab400000041006d0040000148780050002000e3
:103ac400100798000f0037004e4090000000fb00e4
:103ad400f200b900800078001e00900000804000d1
:103ae400a106210000804000904078001e4078002c
:103af40000c04000004f78001e0090000000e80065
:103b0400100798001e009000f00f5000eeff3400e4
:103b14004e4090000000fb009e407800b206210059
:103b2400f200b90000004100700040000148780034
:103b34004e4090000000fb00f200b90080007800c5
:103b4400a00621000080400021c1b30078000700d6
:103b54008089200044010700190ea90000322000ca
:103b64004101070007d0bf00e14f500027003a0091
:103b740080bb20003c01070006d0bf00e14f50008d
:103b8400110032000230ef0008003700108080007e
:103b940081112100008040008040eb000148780042
:103ba400108080000000e8001080880010808000f1
:103bb400e70f5000f5ff34000770ef000430ef000a
:103bc40010c0b300140037000430ef000670ef009b
:103bd4000230ef00080037001080800081112100be
:103be400008040008040eb00014878001080800095
:103bf4000000e8001080880010808000e70f50006b
:103c0400f5ff34000040eb00030037000770ef00bd
:103c14000430ef0010c0b3004f04be000080fa006f
:103c2400000006000000fa00146ea9008133800031
:103c3400f00f2c00008060000080a000803388001a
:103c44002002a9000111800090ff2f000080600075
:103c54000011880020a2a9002062a90010082000f9
:103c64004011880023a2a90023e2a8002188a9000a
:103c740021e2a8002342a8000080fa000000060008
:103c84000000fa00224ea900144ea80020022000d1
:103c9400203688002002a9000111800090ff2f0027
:103ca400008060000011880020a2a9002062a90001
:103cb400100820004011880022e2a90022c2a900b5
:103cc4002168a8002828a80021e2a8000080fa00a2
:103cd400000006000400fa0010079800a00020006d
:103ce400000f7800070037001e0090001040780095
:103cf4000000fb009e0090008100e800110798007e
:103d0400320007001e00780000f0a7000000ea005f
:103d14000000ea004f00de00004078001e0fe900ba
:103d24000004e000f0ff3a000080fa000000060002
:103d34000600fa0010079800414798004e40900092
:103d44000000fb00000f7800070037001e00900001
:103d5400104078000000fb009e0090008100e80005
:103d640011079800190007001e00780000f0a70052
:103d74000000ea000000ea004f00de000040780086
:103d84001e0fe9000004e000f0ff3a000080fa0092
:103d9400000006000200fa00000f7800050037005a
:103da4001e007800104078000000fb001e0fe800a1
:103db400060007001e007800104078000004e000b0
:103dc400f7ff3a000080fa00000006000200fa0043
:103dd400000f780000000000111180000020200076
:103de400008060000000e000fbff3a001e00780045
:103df400201188000080fa00000006000c00fa0080
:103e0400e20047000227290009000900b25878009f
:103e14005f00070081000700c0fb210000000100d3
:103e24009f000700b60007007eff070094ff07000d
:103e340014eea9000000eb00000f78000400370026
:103e440061032200803e2000010001001e0fe800f3
:103e5400b05d20009e007800808f5000f8ff340091
:103e6400a3f90700010037000000000019d0bf00cb
:103e7400e14f5000fcff3a0061032200005f25007f
:103e84000100010018d0bf00e14f50000c003200c7
:103e94000000eb00000f780005003700200b210024
:103ea4001e0040008040eb00014878001e0fe8002f
:103eb4001e007800f80f5000f8ff34002a00370085
:103ec4001630ef001870ef00300b2100904078009e
:103ed40070c4b30080cf500001003a004ffc0700cb
:103ee400300b21009040780030c5b30080cf5000e3
:103ef40001003a00f4fd0700300b210090407800e7
:103f040090c4b30080cf500002003a0078f9070053
:103f14000a0037008f0007006086800071868000e9
:103f24008286800093868000a4868000b586800007
:103f3400c6868000d786800021fa07000000eb00c7
:103f4400000f780005003700200b21001e00400000
:103f54008040eb00014878001e0fe8001e00780046
:103f6400f80f5000f8ff34001970ef001630ef001e
:103f7400beff37000000fa0014eea90018eea900f5
:103f8400150ea900190ea8000080fa000000060012
:103f94000000fa00213a8000f0f32f000080600056
:103fa400203a8800213a800000fe2f000080600043
:103fb400203a880060022000303a880040a7a90017
:103fc4000080fa00000006000000fa0005e1a900e4
:103fd4000421a90004c1a9002108800000032000d5
:103fe40001007000200888006089290010088800fa
:103ff40001428000f0ff2800808060000000230060
:1040040001007000004288000068a9002068a80030
:1040140005e1a8000080fa00000006000000fa0094
:104024000028ef000228ef000428ef000628ef0024
:104034000828ef0001438000f0f82f008080600022
:104044000006200001007000004388002142800027
:10405400f0ff28000080600000e0a00020428800fb
:104064000080fa00000006000400fa00100798001f
:104074000000eb00000f7800030037002700090060
:10408400000000001e0fe8001e0090009e00780053
:10409400808f5000f9ff35000080fa000000060010
:1040a4000000fa00282ea900d1338000f00f2c0064
:1040b400808060000030200001007000d033880050
:1040c4003002a9008111800090ff2f000080600061
:1040d4008011880030a2a9003062a90030102000ad
:1040e400c011880033a2a90033e2a80023e8a90084
:1040f40031e2a8003342a8000080fa000000060064
:104104000000fa00364ea900284ea8002003200023
:10411400303688003002a9008111800090ff2f0002
:10412400008060008011880030a2a9003062a900dc
:1041340030102000c011880032e2a90032c2a90068
:1041440023c8a8002848a80031e2a8000080fa008b
:10415400000006000000fa00300b210012f30700f3
:10416400813e200001017800110009000200d800fe
:1041740060868800400b21000bf3070070868800de
:10418400800b210008f3070080868800d00b2100f3
:1041940005f3070090868800f00b210002f3070066
:1041a400813e200001017800110009000200d800be
:1041b400a0868800000c2100fbf20700b08688006e
:1041c400400c2100f8f20700c0868800900c210002
:1041d400f5f20700d08688000080fa00000006008f
:1041e4000600fa0010079800414798004e409000de
:1041f4000000fb00000f7800080037004114220083
:104204001e009000104078000000fb001e0190008a
:104214000201e80012079800010001001e00780066
:1042240000f0a7000000ea000000ea004f00de00f2
:10423400004078001e0fe9000004e000efff3a00a0
:104244000080fa00000006000200fa00000f780067
:1042540006003700411422001e0078001040780048
:104264000000fb001e0fe800010001001e007800a2
:10427400104078000004e000f6ff3a000080fa00e5
:10428400000006000200fa00000f780000000000a1
:104294009111800000202000008060000000e000f8
:1042a400fbff3a001e007800a01188000080fa008d
:0442b4000000060000
:020000040000fa
:1042b8001a10000004000000800000006a100000ce
:1042c80048000000820000003ea404000cf2000038
:1042d80000000000000000000000000000000000d6
:1042e8003ea401000cef00000000000000000000e8
:1042f80000000000000000003e90040000d23e00d4
:10430800a2040400e8000000000000003ea2010032
:1043180004e5000000000000003ea2000404e800dc
:104328000000000000000000181100000800000054
:104338008000000000100000120000008000000053
:104348001e100000020000008200000002000000b1
:10435800b21000002a0000008000000012100000c7
:104368000800000080000000201000004a00000043
:1043780082000000303132003334350036373800df
:10438800396162006364650066676800696a6b008a
:104398006c6d6e006f7071007273740075767700c3
:1043a80078797a0000000000211511000e0d0c002c
:1043b8000b0b0a000a090900090909000808080086
:1043c800080808000807070007070700070707008d
:1043d800070707000707000020110000040000007d
:1043e80080000000fe1000001a000000820000009b
:1043f800686a6c00747a4c0000000100000200003a
:104408000400080000100000000020002b2d2300ed
:1044180030000000dc1000002200000082000000d4
:1044280030313200333435003637380039414200f4
:1044380043444500460030003132330034353600fd
:104448003738390061626300646566000000000067
:044458000000000060
:020000040000fa
:020000040005f5
:04573000fbff00007b
:020000040000fa
:020000040005f5
:04573800bdff0000b1
:020000040000fa
:020000040005f5
:045740009fff0000c7
:020000040000fa
:020000040005f5
:04574800feff000060
:020000040000fa
:020000040005f5
:04575000fdff000059
:020000040000fa
:020000040005f5
:04577800feff000030
:00000001FF
